{
  "_format": "hh-sol-artifact-1",
  "contractName": "WebdexSwapBookv3",
  "sourceName": "contracts/WebdexSwapBookv3.sol",
  "abi": [
    {
      "inputs": [
        {
          "internalType": "uint256",
          "name": "ownerValue_",
          "type": "uint256"
        },
        {
          "internalType": "address",
          "name": "initialOwner",
          "type": "address"
        }
      ],
      "stateMutability": "nonpayable",
      "type": "constructor"
    },
    {
      "inputs": [
        {
          "internalType": "address",
          "name": "owner",
          "type": "address"
        }
      ],
      "name": "OwnableInvalidOwner",
      "type": "error"
    },
    {
      "inputs": [
        {
          "internalType": "address",
          "name": "account",
          "type": "address"
        }
      ],
      "name": "OwnableUnauthorizedAccount",
      "type": "error"
    },
    {
      "inputs": [],
      "name": "ReentrancyGuardReentrantCall",
      "type": "error"
    },
    {
      "anonymous": false,
      "inputs": [
        {
          "indexed": true,
          "internalType": "address",
          "name": "owner",
          "type": "address"
        },
        {
          "indexed": false,
          "internalType": "uint256",
          "name": "amount",
          "type": "uint256"
        }
      ],
      "name": "FeesWithdrawn",
      "type": "event"
    },
    {
      "anonymous": false,
      "inputs": [
        {
          "indexed": true,
          "internalType": "address",
          "name": "previousOwner",
          "type": "address"
        },
        {
          "indexed": true,
          "internalType": "address",
          "name": "newOwner",
          "type": "address"
        }
      ],
      "name": "OwnershipTransferred",
      "type": "event"
    },
    {
      "anonymous": false,
      "inputs": [
        {
          "indexed": true,
          "internalType": "uint256",
          "name": "id",
          "type": "uint256"
        },
        {
          "indexed": true,
          "internalType": "address",
          "name": "seller",
          "type": "address"
        }
      ],
      "name": "SwapCancelled",
      "type": "event"
    },
    {
      "anonymous": false,
      "inputs": [
        {
          "indexed": true,
          "internalType": "uint256",
          "name": "id",
          "type": "uint256"
        },
        {
          "indexed": true,
          "internalType": "address",
          "name": "seller",
          "type": "address"
        },
        {
          "indexed": true,
          "internalType": "address",
          "name": "leftToken",
          "type": "address"
        },
        {
          "indexed": false,
          "internalType": "uint256",
          "name": "leftAmount",
          "type": "uint256"
        },
        {
          "indexed": false,
          "internalType": "address",
          "name": "rightToken",
          "type": "address"
        },
        {
          "indexed": false,
          "internalType": "uint256",
          "name": "rightAmount",
          "type": "uint256"
        }
      ],
      "name": "SwapCreated",
      "type": "event"
    },
    {
      "anonymous": false,
      "inputs": [
        {
          "indexed": true,
          "internalType": "uint256",
          "name": "id",
          "type": "uint256"
        },
        {
          "indexed": true,
          "internalType": "address",
          "name": "buyer",
          "type": "address"
        },
        {
          "indexed": true,
          "internalType": "address",
          "name": "seller",
          "type": "address"
        }
      ],
      "name": "SwapExecuted",
      "type": "event"
    },
    {
      "anonymous": false,
      "inputs": [
        {
          "indexed": true,
          "internalType": "address",
          "name": "from",
          "type": "address"
        },
        {
          "indexed": true,
          "internalType": "address",
          "name": "to",
          "type": "address"
        },
        {
          "indexed": false,
          "internalType": "string",
          "name": "method",
          "type": "string"
        },
        {
          "indexed": false,
          "internalType": "uint256",
          "name": "timeStamp",
          "type": "uint256"
        },
        {
          "indexed": false,
          "internalType": "uint256",
          "name": "value",
          "type": "uint256"
        }
      ],
      "name": "Transaction",
      "type": "event"
    },
    {
      "inputs": [
        {
          "internalType": "uint256",
          "name": "swapId",
          "type": "uint256"
        }
      ],
      "name": "cancelSwap",
      "outputs": [],
      "stateMutability": "nonpayable",
      "type": "function"
    },
    {
      "inputs": [
        {
          "internalType": "address",
          "name": "leftToken",
          "type": "address"
        },
        {
          "internalType": "uint256",
          "name": "leftTokenAmount",
          "type": "uint256"
        },
        {
          "internalType": "address",
          "name": "rightToken",
          "type": "address"
        },
        {
          "internalType": "uint256",
          "name": "rightTokenAmount",
          "type": "uint256"
        }
      ],
      "name": "createSwap",
      "outputs": [],
      "stateMutability": "payable",
      "type": "function"
    },
    {
      "inputs": [],
      "name": "getOwnerValue",
      "outputs": [
        {
          "internalType": "uint256",
          "name": "",
          "type": "uint256"
        }
      ],
      "stateMutability": "view",
      "type": "function"
    },
    {
      "inputs": [],
      "name": "getPendingSwaps",
      "outputs": [
        {
          "components": [
            {
              "internalType": "uint256",
              "name": "id",
              "type": "uint256"
            },
            {
              "internalType": "address",
              "name": "seller",
              "type": "address"
            },
            {
              "internalType": "address",
              "name": "leftToken",
              "type": "address"
            },
            {
              "internalType": "uint256",
              "name": "leftTokenAmount",
              "type": "uint256"
            },
            {
              "internalType": "address",
              "name": "rightToken",
              "type": "address"
            },
            {
              "internalType": "uint256",
              "name": "rightTokenAmount",
              "type": "uint256"
            }
          ],
          "internalType": "struct WebdexSwapBookv3.SwapInfo[]",
          "name": "",
          "type": "tuple[]"
        }
      ],
      "stateMutability": "view",
      "type": "function"
    },
    {
      "inputs": [],
      "name": "getSoldSwaps",
      "outputs": [
        {
          "components": [
            {
              "internalType": "uint256",
              "name": "id",
              "type": "uint256"
            },
            {
              "internalType": "address",
              "name": "seller",
              "type": "address"
            },
            {
              "internalType": "address",
              "name": "leftToken",
              "type": "address"
            },
            {
              "internalType": "uint256",
              "name": "leftTokenAmount",
              "type": "uint256"
            },
            {
              "internalType": "address",
              "name": "rightToken",
              "type": "address"
            },
            {
              "internalType": "uint256",
              "name": "rightTokenAmount",
              "type": "uint256"
            }
          ],
          "internalType": "struct WebdexSwapBookv3.SwapInfo[]",
          "name": "",
          "type": "tuple[]"
        }
      ],
      "stateMutability": "view",
      "type": "function"
    },
    {
      "inputs": [],
      "name": "owner",
      "outputs": [
        {
          "internalType": "address",
          "name": "",
          "type": "address"
        }
      ],
      "stateMutability": "view",
      "type": "function"
    },
    {
      "inputs": [],
      "name": "renounceOwnership",
      "outputs": [],
      "stateMutability": "nonpayable",
      "type": "function"
    },
    {
      "inputs": [
        {
          "internalType": "uint256",
          "name": "swapId",
          "type": "uint256"
        }
      ],
      "name": "swapTokens",
      "outputs": [],
      "stateMutability": "payable",
      "type": "function"
    },
    {
      "inputs": [
        {
          "internalType": "uint256",
          "name": "",
          "type": "uint256"
        }
      ],
      "name": "swaps",
      "outputs": [
        {
          "internalType": "uint256",
          "name": "id",
          "type": "uint256"
        },
        {
          "internalType": "address",
          "name": "seller",
          "type": "address"
        },
        {
          "internalType": "address",
          "name": "leftToken",
          "type": "address"
        },
        {
          "internalType": "uint256",
          "name": "leftTokenAmount",
          "type": "uint256"
        },
        {
          "internalType": "address",
          "name": "rightToken",
          "type": "address"
        },
        {
          "internalType": "uint256",
          "name": "rightTokenAmount",
          "type": "uint256"
        },
        {
          "internalType": "enum WebdexSwapBookv3.Status",
          "name": "status",
          "type": "uint8"
        }
      ],
      "stateMutability": "view",
      "type": "function"
    },
    {
      "inputs": [
        {
          "internalType": "address",
          "name": "newOwner",
          "type": "address"
        }
      ],
      "name": "transferOwnership",
      "outputs": [],
      "stateMutability": "nonpayable",
      "type": "function"
    },
    {
      "inputs": [
        {
          "internalType": "uint256",
          "name": "amount",
          "type": "uint256"
        }
      ],
      "name": "withdrawFees",
      "outputs": [],
      "stateMutability": "nonpayable",
      "type": "function"
    }
  ],
  "bytecode": "0x608060405234801561001057600080fd5b50604051612a4d380380612a4d8339818101604052810190610032919061022f565b80600073ffffffffffffffffffffffffffffffffffffffff168173ffffffffffffffffffffffffffffffffffffffff16036100a55760006040517f1e4fbdf700000000000000000000000000000000000000000000000000000000815260040161009c919061027e565b60405180910390fd5b6100b4816100d260201b60201c565b50600180819055508160028190555060016003819055505050610299565b60008060009054906101000a900473ffffffffffffffffffffffffffffffffffffffff169050816000806101000a81548173ffffffffffffffffffffffffffffffffffffffff021916908373ffffffffffffffffffffffffffffffffffffffff1602179055508173ffffffffffffffffffffffffffffffffffffffff168173ffffffffffffffffffffffffffffffffffffffff167f8be0079c531659141344cd1fd0a4f28419497f9722a3daafe3b4186f6b6457e060405160405180910390a35050565b600080fd5b6000819050919050565b6101ae8161019b565b81146101b957600080fd5b50565b6000815190506101cb816101a5565b92915050565b600073ffffffffffffffffffffffffffffffffffffffff82169050919050565b60006101fc826101d1565b9050919050565b61020c816101f1565b811461021757600080fd5b50565b60008151905061022981610203565b92915050565b6000806040838503121561024657610245610196565b5b6000610254858286016101bc565b92505060206102658582860161021a565b9150509250929050565b610278816101f1565b82525050565b6000602082019050610293600083018461026f565b92915050565b6127a5806102a86000396000f3fe60806040526004361061009c5760003560e01c8063c31e7ab911610064578063c31e7ab914610160578063c9885b761461018b578063db7a3e24146101b6578063f09c5829146101d2578063f2fde38b14610215578063fe784eaa1461023e5761009c565b8063266232f8146100a157806354d6a2b7146100cc5780635e318e07146100f5578063715018a61461011e5780638da5cb5b14610135575b600080fd5b3480156100ad57600080fd5b506100b661025a565b6040516100c39190611a94565b60405180910390f35b3480156100d857600080fd5b506100f360048036038101906100ee9190611ae7565b610419565b005b34801561010157600080fd5b5061011c60048036038101906101179190611ae7565b61073e565b005b34801561012a57600080fd5b50610133610821565b005b34801561014157600080fd5b5061014a610835565b6040516101579190611b23565b60405180910390f35b34801561016c57600080fd5b5061017561085e565b6040516101829190611a94565b60405180910390f35b34801561019757600080fd5b506101a0610a1d565b6040516101ad9190611b4d565b60405180910390f35b6101d060048036038101906101cb9190611b94565b610a27565b005b3480156101de57600080fd5b506101f960048036038101906101f49190611ae7565b610fc6565b60405161020c9796959493929190611c72565b60405180910390f35b34801561022157600080fd5b5061023c60048036038101906102379190611ce1565b611075565b005b61025860048036038101906102539190611ae7565b6110fb565b005b6060600060068054905067ffffffffffffffff81111561027d5761027c611d0e565b5b6040519080825280602002602001820160405280156102b657816020015b6102a3611898565b81526020019060019003908161029b5790505b50905060005b60068054905081101561041157600060046000600684815481106102e3576102e2611d3d565b5b9060005260206000200154815260200190815260200160002090506040518060c00160405280826000015481526020018260010160009054906101000a900473ffffffffffffffffffffffffffffffffffffffff1673ffffffffffffffffffffffffffffffffffffffff1681526020018260020160009054906101000a900473ffffffffffffffffffffffffffffffffffffffff1673ffffffffffffffffffffffffffffffffffffffff168152602001826003015481526020018260040160009054906101000a900473ffffffffffffffffffffffffffffffffffffffff1673ffffffffffffffffffffffffffffffffffffffff16815260200182600501548152508383815181106103f8576103f7611d3d565b5b60200260200101819052505080806001019150506102bc565b508091505090565b610421611636565b3373ffffffffffffffffffffffffffffffffffffffff166004600083815260200190815260200160002060010160009054906101000a900473ffffffffffffffffffffffffffffffffffffffff1673ffffffffffffffffffffffffffffffffffffffff16146104c5576040517f08c379a00000000000000000000000000000000000000000000000000000000081526004016104bc90611dc9565b60405180910390fd5b600060028111156104d9576104d8611bfb565b5b6004600083815260200190815260200160002060060160009054906101000a900460ff16600281111561050f5761050e611bfb565b5b1461054f576040517f08c379a000000000000000000000000000000000000000000000000000000000815260040161054690611e5b565b60405180910390fd5b600060046000838152602001908152602001600020905060008160020160009054906101000a900473ffffffffffffffffffffffffffffffffffffffff1690508073ffffffffffffffffffffffffffffffffffffffff1663a9059cbb3384600301546040518363ffffffff1660e01b81526004016105ce929190611e7b565b6020604051808303816000875af11580156105ed573d6000803e3d6000fd5b505050506040513d601f19601f820116820180604052508101906106119190611edc565b5060016004600085815260200190815260200160002060060160006101000a81548160ff0219169083600281111561064c5761064b611bfb565b5b021790555061065c60058461167c565b60078390806001815401808255809150506001900390600052602060002001600090919091909150553373ffffffffffffffffffffffffffffffffffffffff16837fc9660176d761dbcab77c697281268e30dffb9a42cafafcbe4e3a58fc44496e3260405160405180910390a33073ffffffffffffffffffffffffffffffffffffffff163373ffffffffffffffffffffffffffffffffffffffff167f03bf3bd6f276c409c4c8022a0ff3dd09f857cf66dca531a946dbefaae32cc4ed426000604051610729929190611f9a565b60405180910390a3505061073b61173c565b50565b610746611745565b47811115610789576040517f08c379a000000000000000000000000000000000000000000000000000000000815260040161078090612048565b60405180910390fd5b3373ffffffffffffffffffffffffffffffffffffffff166108fc829081150290604051600060405180830381858888f193505050501580156107cf573d6000803e3d6000fd5b503373ffffffffffffffffffffffffffffffffffffffff167fc0819c13be868895eb93e40eaceb96de976442fa1d404e5c55f14bb65a8c489a826040516108169190611b4d565b60405180910390a250565b610829611745565b61083360006117cc565b565b60008060009054906101000a900473ffffffffffffffffffffffffffffffffffffffff16905090565b6060600060058054905067ffffffffffffffff81111561088157610880611d0e565b5b6040519080825280602002602001820160405280156108ba57816020015b6108a7611898565b81526020019060019003908161089f5790505b50905060005b600580549050811015610a1557600060046000600584815481106108e7576108e6611d3d565b5b9060005260206000200154815260200190815260200160002090506040518060c00160405280826000015481526020018260010160009054906101000a900473ffffffffffffffffffffffffffffffffffffffff1673ffffffffffffffffffffffffffffffffffffffff1681526020018260020160009054906101000a900473ffffffffffffffffffffffffffffffffffffffff1673ffffffffffffffffffffffffffffffffffffffff168152602001826003015481526020018260040160009054906101000a900473ffffffffffffffffffffffffffffffffffffffff1673ffffffffffffffffffffffffffffffffffffffff16815260200182600501548152508383815181106109fc576109fb611d3d565b5b60200260200101819052505080806001019150506108c0565b508091505090565b6000600254905090565b6002543414610a6b576040517f08c379a0000000000000000000000000000000000000000000000000000000008152600401610a62906120da565b60405180910390fd5b60008311610aae576040517f08c379a0000000000000000000000000000000000000000000000000000000008152600401610aa59061216c565b60405180910390fd5b60008111610af1576040517f08c379a0000000000000000000000000000000000000000000000000000000008152600401610ae8906121fe565b60405180910390fd5b600073ffffffffffffffffffffffffffffffffffffffff168473ffffffffffffffffffffffffffffffffffffffff1614158015610b5b5750600073ffffffffffffffffffffffffffffffffffffffff168273ffffffffffffffffffffffffffffffffffffffff1614155b610b9a576040517f08c379a0000000000000000000000000000000000000000000000000000000008152600401610b919061226a565b60405180910390fd5b6000849050838173ffffffffffffffffffffffffffffffffffffffff1663dd62ed3e33306040518363ffffffff1660e01b8152600401610bdb92919061228a565b602060405180830381865afa158015610bf8573d6000803e3d6000fd5b505050506040513d601f19601f82011682018060405250810190610c1c91906122c8565b1015610c5d576040517f08c379a0000000000000000000000000000000000000000000000000000000008152600401610c5490612367565b60405180910390fd5b6000600354905060036000815480929190610c77906123b6565b919050555060006040518060e001604052808381526020013373ffffffffffffffffffffffffffffffffffffffff1681526020018873ffffffffffffffffffffffffffffffffffffffff1681526020018781526020018673ffffffffffffffffffffffffffffffffffffffff16815260200185815260200160006002811115610d0357610d02611bfb565b5b81525090508273ffffffffffffffffffffffffffffffffffffffff166323b872dd3330896040518463ffffffff1660e01b8152600401610d45939291906123fe565b6020604051808303816000875af1158015610d64573d6000803e3d6000fd5b505050506040513d601f19601f82011682018060405250810190610d889190611edc565b5080600460008481526020019081526020016000206000820151816000015560208201518160010160006101000a81548173ffffffffffffffffffffffffffffffffffffffff021916908373ffffffffffffffffffffffffffffffffffffffff16021790555060408201518160020160006101000a81548173ffffffffffffffffffffffffffffffffffffffff021916908373ffffffffffffffffffffffffffffffffffffffff1602179055506060820151816003015560808201518160040160006101000a81548173ffffffffffffffffffffffffffffffffffffffff021916908373ffffffffffffffffffffffffffffffffffffffff16021790555060a0820151816005015560c08201518160060160006101000a81548160ff02191690836002811115610ebb57610eba611bfb565b5b021790555090505060058290806001815401808255809150506001900390600052602060002001600090919091909150558673ffffffffffffffffffffffffffffffffffffffff163373ffffffffffffffffffffffffffffffffffffffff16837f0318b89ef33a5470f7a84d6f396b6323e5709f642ea4b76ce276ca74ba8179e2898989604051610f4e93929190612435565b60405180910390a43073ffffffffffffffffffffffffffffffffffffffff163373ffffffffffffffffffffffffffffffffffffffff167f03bf3bd6f276c409c4c8022a0ff3dd09f857cf66dca531a946dbefaae32cc4ed4234604051610fb59291906124b8565b60405180910390a350505050505050565b60046020528060005260406000206000915090508060000154908060010160009054906101000a900473ffffffffffffffffffffffffffffffffffffffff16908060020160009054906101000a900473ffffffffffffffffffffffffffffffffffffffff16908060030154908060040160009054906101000a900473ffffffffffffffffffffffffffffffffffffffff16908060050154908060060160009054906101000a900460ff16905087565b61107d611745565b600073ffffffffffffffffffffffffffffffffffffffff168173ffffffffffffffffffffffffffffffffffffffff16036110ef5760006040517f1e4fbdf70000000000000000000000000000000000000000000000000000000081526004016110e69190611b23565b60405180910390fd5b6110f8816117cc565b50565b611103611636565b6002543414611147576040517f08c379a000000000000000000000000000000000000000000000000000000000815260040161113e90612566565b60405180910390fd5b6000600281111561115b5761115a611bfb565b5b6004600083815260200190815260200160002060060160009054906101000a900460ff16600281111561119157611190611bfb565b5b146111d1576040517f08c379a00000000000000000000000000000000000000000000000000000000081526004016111c8906125d2565b60405180910390fd5b600060046000838152602001908152602001600020905060008160020160009054906101000a900473ffffffffffffffffffffffffffffffffffffffff16905060008260040160009054906101000a900473ffffffffffffffffffffffffffffffffffffffff16905082600501548173ffffffffffffffffffffffffffffffffffffffff1663dd62ed3e33306040518363ffffffff1660e01b815260040161127a92919061228a565b602060405180830381865afa158015611297573d6000803e3d6000fd5b505050506040513d601f19601f820116820180604052508101906112bb91906122c8565b10156112fc576040517f08c379a00000000000000000000000000000000000000000000000000000000081526004016112f390612664565b60405180910390fd5b8073ffffffffffffffffffffffffffffffffffffffff166323b872dd333086600501546040518463ffffffff1660e01b815260040161133d939291906123fe565b6020604051808303816000875af115801561135c573d6000803e3d6000fd5b505050506040513d601f19601f820116820180604052508101906113809190611edc565b508173ffffffffffffffffffffffffffffffffffffffff1663a9059cbb3385600301546040518363ffffffff1660e01b81526004016113c0929190611e7b565b6020604051808303816000875af11580156113df573d6000803e3d6000fd5b505050506040513d601f19601f820116820180604052508101906114039190611edc565b508073ffffffffffffffffffffffffffffffffffffffff1663a9059cbb8460010160009054906101000a900473ffffffffffffffffffffffffffffffffffffffff1685600501546040518363ffffffff1660e01b8152600401611467929190611e7b565b6020604051808303816000875af1158015611486573d6000803e3d6000fd5b505050506040513d601f19601f820116820180604052508101906114aa9190611edc565b5060026004600086815260200190815260200160002060060160006101000a81548160ff021916908360028111156114e5576114e4611bfb565b5b02179055506114f560058561167c565b60068490806001815401808255809150506001900390600052602060002001600090919091909150558260010160009054906101000a900473ffffffffffffffffffffffffffffffffffffffff1673ffffffffffffffffffffffffffffffffffffffff163373ffffffffffffffffffffffffffffffffffffffff16857faeb3cc262d96f6543a351f1bec4a5363e20a4ae21f4cef49b28df1af281f277a60405160405180910390a48260010160009054906101000a900473ffffffffffffffffffffffffffffffffffffffff1673ffffffffffffffffffffffffffffffffffffffff163373ffffffffffffffffffffffffffffffffffffffff167f03bf3bd6f276c409c4c8022a0ff3dd09f857cf66dca531a946dbefaae32cc4ed42346040516116209291906126d0565b60405180910390a350505061163361173c565b50565b600260015403611672576040517f3ee5aeb500000000000000000000000000000000000000000000000000000000815260040160405180910390fd5b6002600181905550565b60005b8280549050811015611737578183828154811061169f5761169e611d3d565b5b90600052602060002001540361172a5782600184805490506116c1919061270c565b815481106116d2576116d1611d3d565b5b90600052602060002001548382815481106116f0576116ef611d3d565b5b90600052602060002001819055508280548061170f5761170e612740565b5b60019003818190600052602060002001600090559055611737565b808060010191505061167f565b505050565b60018081905550565b61174d611890565b73ffffffffffffffffffffffffffffffffffffffff1661176b610835565b73ffffffffffffffffffffffffffffffffffffffff16146117ca5761178e611890565b6040517f118cdaa70000000000000000000000000000000000000000000000000000000081526004016117c19190611b23565b60405180910390fd5b565b60008060009054906101000a900473ffffffffffffffffffffffffffffffffffffffff169050816000806101000a81548173ffffffffffffffffffffffffffffffffffffffff021916908373ffffffffffffffffffffffffffffffffffffffff1602179055508173ffffffffffffffffffffffffffffffffffffffff168173ffffffffffffffffffffffffffffffffffffffff167f8be0079c531659141344cd1fd0a4f28419497f9722a3daafe3b4186f6b6457e060405160405180910390a35050565b600033905090565b6040518060c0016040528060008152602001600073ffffffffffffffffffffffffffffffffffffffff168152602001600073ffffffffffffffffffffffffffffffffffffffff16815260200160008152602001600073ffffffffffffffffffffffffffffffffffffffff168152602001600081525090565b600081519050919050565b600082825260208201905092915050565b6000819050602082019050919050565b6000819050919050565b61194f8161193c565b82525050565b600073ffffffffffffffffffffffffffffffffffffffff82169050919050565b600061198082611955565b9050919050565b61199081611975565b82525050565b60c0820160008201516119ac6000850182611946565b5060208201516119bf6020850182611987565b5060408201516119d26040850182611987565b5060608201516119e56060850182611946565b5060808201516119f86080850182611987565b5060a0820151611a0b60a0850182611946565b50505050565b6000611a1d8383611996565b60c08301905092915050565b6000602082019050919050565b6000611a4182611910565b611a4b818561191b565b9350611a568361192c565b8060005b83811015611a87578151611a6e8882611a11565b9750611a7983611a29565b925050600181019050611a5a565b5085935050505092915050565b60006020820190508181036000830152611aae8184611a36565b905092915050565b600080fd5b611ac48161193c565b8114611acf57600080fd5b50565b600081359050611ae181611abb565b92915050565b600060208284031215611afd57611afc611ab6565b5b6000611b0b84828501611ad2565b91505092915050565b611b1d81611975565b82525050565b6000602082019050611b386000830184611b14565b92915050565b611b478161193c565b82525050565b6000602082019050611b626000830184611b3e565b92915050565b611b7181611975565b8114611b7c57600080fd5b50565b600081359050611b8e81611b68565b92915050565b60008060008060808587031215611bae57611bad611ab6565b5b6000611bbc87828801611b7f565b9450506020611bcd87828801611ad2565b9350506040611bde87828801611b7f565b9250506060611bef87828801611ad2565b91505092959194509250565b7f4e487b7100000000000000000000000000000000000000000000000000000000600052602160045260246000fd5b60038110611c3b57611c3a611bfb565b5b50565b6000819050611c4c82611c2a565b919050565b6000611c5c82611c3e565b9050919050565b611c6c81611c51565b82525050565b600060e082019050611c87600083018a611b3e565b611c946020830189611b14565b611ca16040830188611b14565b611cae6060830187611b3e565b611cbb6080830186611b14565b611cc860a0830185611b3e565b611cd560c0830184611c63565b98975050505050505050565b600060208284031215611cf757611cf6611ab6565b5b6000611d0584828501611b7f565b91505092915050565b7f4e487b7100000000000000000000000000000000000000000000000000000000600052604160045260246000fd5b7f4e487b7100000000000000000000000000000000000000000000000000000000600052603260045260246000fd5b600082825260208201905092915050565b7f43616e63656c537761703a206e6f74207468652073656c6c6572000000000000600082015250565b6000611db3601a83611d6c565b9150611dbe82611d7d565b602082019050919050565b60006020820190508181036000830152611de281611da6565b9050919050565b7f43616e63656c537761703a20737461747573206973206e6f742050454e44494e60008201527f4700000000000000000000000000000000000000000000000000000000000000602082015250565b6000611e45602183611d6c565b9150611e5082611de9565b604082019050919050565b60006020820190508181036000830152611e7481611e38565b9050919050565b6000604082019050611e906000830185611b14565b611e9d6020830184611b3e565b9392505050565b60008115159050919050565b611eb981611ea4565b8114611ec457600080fd5b50565b600081519050611ed681611eb0565b92915050565b600060208284031215611ef257611ef1611ab6565b5b6000611f0084828501611ec7565b91505092915050565b7f43616e63656c2053776170000000000000000000000000000000000000000000600082015250565b6000611f3f600b83611d6c565b9150611f4a82611f09565b602082019050919050565b6000819050919050565b6000819050919050565b6000611f84611f7f611f7a84611f55565b611f5f565b61193c565b9050919050565b611f9481611f69565b82525050565b60006060820190508181036000830152611fb381611f32565b9050611fc26020830185611b3e565b611fcf6040830184611f8b565b9392505050565b7f5769746864726177466565733a204e6f7420656e6f7567682066756e6473206960008201527f6e20636f6e747261637400000000000000000000000000000000000000000000602082015250565b6000612032602a83611d6c565b915061203d82611fd6565b604082019050919050565b6000602082019050818103600083015261206181612025565b9050919050565b7f437265617465537761703a206d7573742073656e64206578616374206f776e6560008201527f7220666565000000000000000000000000000000000000000000000000000000602082015250565b60006120c4602583611d6c565b91506120cf82612068565b604082019050919050565b600060208201905081810360008301526120f3816120b7565b9050919050565b7f437265617465537761703a206c656674546f6b656e416d6f756e74206d75737460008201527f206265203e203000000000000000000000000000000000000000000000000000602082015250565b6000612156602783611d6c565b9150612161826120fa565b604082019050919050565b6000602082019050818103600083015261218581612149565b9050919050565b7f437265617465537761703a207269676874546f6b656e416d6f756e74206d757360008201527f74206265203e2030000000000000000000000000000000000000000000000000602082015250565b60006121e8602883611d6c565b91506121f38261218c565b604082019050919050565b60006020820190508181036000830152612217816121db565b9050919050565b7f437265617465537761703a20746f6b656e2061646472657373207a65726f0000600082015250565b6000612254601e83611d6c565b915061225f8261221e565b602082019050919050565b6000602082019050818103600083015261228381612247565b9050919050565b600060408201905061229f6000830185611b14565b6122ac6020830184611b14565b9392505050565b6000815190506122c281611abb565b92915050565b6000602082840312156122de576122dd611ab6565b5b60006122ec848285016122b3565b91505092915050565b7f437265617465537761703a20636f6e7472616374206e6f7420617070726f766560008201527f6420746f207370656e6420757365722773206c656674546f6b656e0000000000602082015250565b6000612351603b83611d6c565b915061235c826122f5565b604082019050919050565b6000602082019050818103600083015261238081612344565b9050919050565b7f4e487b7100000000000000000000000000000000000000000000000000000000600052601160045260246000fd5b60006123c18261193c565b91507fffffffffffffffffffffffffffffffffffffffffffffffffffffffffffffffff82036123f3576123f2612387565b5b600182019050919050565b60006060820190506124136000830186611b14565b6124206020830185611b14565b61242d6040830184611b3e565b949350505050565b600060608201905061244a6000830186611b3e565b6124576020830185611b14565b6124646040830184611b3e565b949350505050565b7f4372656174652053776170000000000000000000000000000000000000000000600082015250565b60006124a2600b83611d6c565b91506124ad8261246c565b602082019050919050565b600060608201905081810360008301526124d181612495565b90506124e06020830185611b3e565b6124ed6040830184611b3e565b9392505050565b7f53776170546f6b656e733a206d7573742073656e64206578616374206f776e6560008201527f7220666565000000000000000000000000000000000000000000000000000000602082015250565b6000612550602583611d6c565b915061255b826124f4565b604082019050919050565b6000602082019050818103600083015261257f81612543565b9050919050565b7f5377617020737461747573206973206e6f742050454e44494e47000000000000600082015250565b60006125bc601a83611d6c565b91506125c782612586565b602082019050919050565b600060208201905081810360008301526125eb816125af565b9050919050565b7f436f6e7472616374206e6f7420617070726f76656420746f207370656e64207560008201527f736572277320746f6b656e730000000000000000000000000000000000000000602082015250565b600061264e602c83611d6c565b9150612659826125f2565b604082019050919050565b6000602082019050818103600083015261267d81612641565b9050919050565b7f5377617020546f6b656e73000000000000000000000000000000000000000000600082015250565b60006126ba600b83611d6c565b91506126c582612684565b602082019050919050565b600060608201905081810360008301526126e9816126ad565b90506126f86020830185611b3e565b6127056040830184611b3e565b9392505050565b60006127178261193c565b91506127228361193c565b925082820390508181111561273a57612739612387565b5b92915050565b7f4e487b7100000000000000000000000000000000000000000000000000000000600052603160045260246000fdfea2646970667358221220b8233c64599f2f61534de6dcd05e8881730943294c3cf12fc381e7d634c317e464736f6c634300081c0033",
  "linkReferences": {},
  "deployedLinkReferences": {}
}