{
  "_format": "hh-sol-artifact-1",
  "contractName": "WebdexSwapBookv3",
  "sourceName": "contracts/WebdexSwapBookv3.sol",
  "abi": [
    {
      "inputs": [
        {
          "internalType": "uint256",
          "name": "ownerValue_",
          "type": "uint256"
        },
        {
          "internalType": "address",
          "name": "initialOwner",
          "type": "address"
        }
      ],
      "stateMutability": "nonpayable",
      "type": "constructor"
    },
    {
      "inputs": [
        {
          "internalType": "address",
          "name": "owner",
          "type": "address"
        }
      ],
      "name": "OwnableInvalidOwner",
      "type": "error"
    },
    {
      "inputs": [
        {
          "internalType": "address",
          "name": "account",
          "type": "address"
        }
      ],
      "name": "OwnableUnauthorizedAccount",
      "type": "error"
    },
    {
      "inputs": [],
      "name": "ReentrancyGuardReentrantCall",
      "type": "error"
    },
    {
      "anonymous": false,
      "inputs": [
        {
          "indexed": true,
          "internalType": "address",
          "name": "previousOwner",
          "type": "address"
        },
        {
          "indexed": true,
          "internalType": "address",
          "name": "newOwner",
          "type": "address"
        }
      ],
      "name": "OwnershipTransferred",
      "type": "event"
    },
    {
      "anonymous": false,
      "inputs": [
        {
          "indexed": true,
          "internalType": "address",
          "name": "from",
          "type": "address"
        },
        {
          "indexed": true,
          "internalType": "address",
          "name": "to",
          "type": "address"
        },
        {
          "indexed": false,
          "internalType": "string",
          "name": "method",
          "type": "string"
        },
        {
          "indexed": false,
          "internalType": "uint256",
          "name": "timeStamp",
          "type": "uint256"
        },
        {
          "indexed": false,
          "internalType": "uint256",
          "name": "value",
          "type": "uint256"
        }
      ],
      "name": "Transaction",
      "type": "event"
    },
    {
      "inputs": [
        {
          "internalType": "uint256",
          "name": "swapId",
          "type": "uint256"
        }
      ],
      "name": "cancelSwap",
      "outputs": [],
      "stateMutability": "nonpayable",
      "type": "function"
    },
    {
      "inputs": [
        {
          "internalType": "address",
          "name": "leftToken",
          "type": "address"
        },
        {
          "internalType": "uint256",
          "name": "leftTokenAmount",
          "type": "uint256"
        },
        {
          "internalType": "address",
          "name": "rightToken",
          "type": "address"
        },
        {
          "internalType": "uint256",
          "name": "rightTokenAmount",
          "type": "uint256"
        }
      ],
      "name": "createSwap",
      "outputs": [],
      "stateMutability": "payable",
      "type": "function"
    },
    {
      "inputs": [],
      "name": "getOwnerValue",
      "outputs": [
        {
          "internalType": "uint256",
          "name": "",
          "type": "uint256"
        }
      ],
      "stateMutability": "view",
      "type": "function"
    },
    {
      "inputs": [],
      "name": "getPendingSwaps",
      "outputs": [
        {
          "components": [
            {
              "internalType": "uint256",
              "name": "id",
              "type": "uint256"
            },
            {
              "internalType": "address",
              "name": "seller",
              "type": "address"
            },
            {
              "internalType": "address",
              "name": "leftToken",
              "type": "address"
            },
            {
              "internalType": "uint256",
              "name": "leftTokenAmount",
              "type": "uint256"
            },
            {
              "internalType": "address",
              "name": "rightToken",
              "type": "address"
            },
            {
              "internalType": "uint256",
              "name": "rightTokenAmount",
              "type": "uint256"
            }
          ],
          "internalType": "struct WebdexSwapBookv3.SwapInfo[]",
          "name": "",
          "type": "tuple[]"
        }
      ],
      "stateMutability": "view",
      "type": "function"
    },
    {
      "inputs": [],
      "name": "getSoldSwaps",
      "outputs": [
        {
          "components": [
            {
              "internalType": "uint256",
              "name": "id",
              "type": "uint256"
            },
            {
              "internalType": "address",
              "name": "seller",
              "type": "address"
            },
            {
              "internalType": "address",
              "name": "leftToken",
              "type": "address"
            },
            {
              "internalType": "uint256",
              "name": "leftTokenAmount",
              "type": "uint256"
            },
            {
              "internalType": "address",
              "name": "rightToken",
              "type": "address"
            },
            {
              "internalType": "uint256",
              "name": "rightTokenAmount",
              "type": "uint256"
            }
          ],
          "internalType": "struct WebdexSwapBookv3.SwapInfo[]",
          "name": "",
          "type": "tuple[]"
        }
      ],
      "stateMutability": "view",
      "type": "function"
    },
    {
      "inputs": [],
      "name": "owner",
      "outputs": [
        {
          "internalType": "address",
          "name": "",
          "type": "address"
        }
      ],
      "stateMutability": "view",
      "type": "function"
    },
    {
      "inputs": [],
      "name": "renounceOwnership",
      "outputs": [],
      "stateMutability": "nonpayable",
      "type": "function"
    },
    {
      "inputs": [
        {
          "internalType": "uint256",
          "name": "swapId",
          "type": "uint256"
        }
      ],
      "name": "swapTokens",
      "outputs": [],
      "stateMutability": "payable",
      "type": "function"
    },
    {
      "inputs": [
        {
          "internalType": "uint256",
          "name": "",
          "type": "uint256"
        }
      ],
      "name": "swaps",
      "outputs": [
        {
          "internalType": "uint256",
          "name": "id",
          "type": "uint256"
        },
        {
          "internalType": "address",
          "name": "seller",
          "type": "address"
        },
        {
          "internalType": "address",
          "name": "leftToken",
          "type": "address"
        },
        {
          "internalType": "uint256",
          "name": "leftTokenAmount",
          "type": "uint256"
        },
        {
          "internalType": "address",
          "name": "rightToken",
          "type": "address"
        },
        {
          "internalType": "uint256",
          "name": "rightTokenAmount",
          "type": "uint256"
        },
        {
          "internalType": "enum WebdexSwapBookv3.Status",
          "name": "status",
          "type": "uint8"
        }
      ],
      "stateMutability": "view",
      "type": "function"
    },
    {
      "inputs": [
        {
          "internalType": "address",
          "name": "newOwner",
          "type": "address"
        }
      ],
      "name": "transferOwnership",
      "outputs": [],
      "stateMutability": "nonpayable",
      "type": "function"
    },
    {
      "inputs": [
        {
          "internalType": "uint256",
          "name": "amount",
          "type": "uint256"
        }
      ],
      "name": "withdrawFees",
      "outputs": [],
      "stateMutability": "nonpayable",
      "type": "function"
    }
  ],
  "bytecode": "0x608060405234801561001057600080fd5b5060405161255e38038061255e8339818101604052810190610032919061022f565b80600073ffffffffffffffffffffffffffffffffffffffff168173ffffffffffffffffffffffffffffffffffffffff16036100a55760006040517f1e4fbdf700000000000000000000000000000000000000000000000000000000815260040161009c919061027e565b60405180910390fd5b6100b4816100d260201b60201c565b50600180819055508160028190555060016003819055505050610299565b60008060009054906101000a900473ffffffffffffffffffffffffffffffffffffffff169050816000806101000a81548173ffffffffffffffffffffffffffffffffffffffff021916908373ffffffffffffffffffffffffffffffffffffffff1602179055508173ffffffffffffffffffffffffffffffffffffffff168173ffffffffffffffffffffffffffffffffffffffff167f8be0079c531659141344cd1fd0a4f28419497f9722a3daafe3b4186f6b6457e060405160405180910390a35050565b600080fd5b6000819050919050565b6101ae8161019b565b81146101b957600080fd5b50565b6000815190506101cb816101a5565b92915050565b600073ffffffffffffffffffffffffffffffffffffffff82169050919050565b60006101fc826101d1565b9050919050565b61020c816101f1565b811461021757600080fd5b50565b60008151905061022981610203565b92915050565b6000806040838503121561024657610245610196565b5b6000610254858286016101bc565b92505060206102658582860161021a565b9150509250929050565b610278816101f1565b82525050565b6000602082019050610293600083018461026f565b92915050565b6122b6806102a86000396000f3fe60806040526004361061009c5760003560e01c8063c31e7ab911610064578063c31e7ab914610160578063c9885b761461018b578063db7a3e24146101b6578063f09c5829146101d2578063f2fde38b14610215578063fe784eaa1461023e5761009c565b8063266232f8146100a157806354d6a2b7146100cc5780635e318e07146100f5578063715018a61461011e5780638da5cb5b14610135575b600080fd5b3480156100ad57600080fd5b506100b661025a565b6040516100c39190611870565b60405180910390f35b3480156100d857600080fd5b506100f360048036038101906100ee91906118c3565b610419565b005b34801561010157600080fd5b5061011c600480360381019061011791906118c3565b6106fa565b005b34801561012a57600080fd5b5061013361078f565b005b34801561014157600080fd5b5061014a6107a3565b60405161015791906118ff565b60405180910390f35b34801561016c57600080fd5b506101756107cc565b6040516101829190611870565b60405180910390f35b34801561019757600080fd5b506101a061098b565b6040516101ad9190611929565b60405180910390f35b6101d060048036038101906101cb9190611970565b610995565b005b3480156101de57600080fd5b506101f960048036038101906101f491906118c3565b610e21565b60405161020c9796959493929190611a4e565b60405180910390f35b34801561022157600080fd5b5061023c60048036038101906102379190611abd565b610ed0565b005b610258600480360381019061025391906118c3565b610f56565b005b6060600060068054905067ffffffffffffffff81111561027d5761027c611aea565b5b6040519080825280602002602001820160405280156102b657816020015b6102a3611674565b81526020019060019003908161029b5790505b50905060005b60068054905081101561041157600060046000600684815481106102e3576102e2611b19565b5b9060005260206000200154815260200190815260200160002090506040518060c00160405280826000015481526020018260010160009054906101000a900473ffffffffffffffffffffffffffffffffffffffff1673ffffffffffffffffffffffffffffffffffffffff1681526020018260020160009054906101000a900473ffffffffffffffffffffffffffffffffffffffff1673ffffffffffffffffffffffffffffffffffffffff168152602001826003015481526020018260040160009054906101000a900473ffffffffffffffffffffffffffffffffffffffff1673ffffffffffffffffffffffffffffffffffffffff16815260200182600501548152508383815181106103f8576103f7611b19565b5b60200260200101819052505080806001019150506102bc565b508091505090565b610421611412565b3373ffffffffffffffffffffffffffffffffffffffff166004600083815260200190815260200160002060010160009054906101000a900473ffffffffffffffffffffffffffffffffffffffff1673ffffffffffffffffffffffffffffffffffffffff16146104c5576040517f08c379a00000000000000000000000000000000000000000000000000000000081526004016104bc90611bcb565b60405180910390fd5b600060028111156104d9576104d86119d7565b5b6004600083815260200190815260200160002060060160009054906101000a900460ff16600281111561050f5761050e6119d7565b5b1461054f576040517f08c379a000000000000000000000000000000000000000000000000000000000815260040161054690611c37565b60405180910390fd5b600060046000838152602001908152602001600020905060008160020160009054906101000a900473ffffffffffffffffffffffffffffffffffffffff1690508073ffffffffffffffffffffffffffffffffffffffff1663a9059cbb3384600301546040518363ffffffff1660e01b81526004016105ce929190611c57565b6020604051808303816000875af11580156105ed573d6000803e3d6000fd5b505050506040513d601f19601f820116820180604052508101906106119190611cb8565b5060016004600085815260200190815260200160002060060160006101000a81548160ff0219169083600281111561064c5761064b6119d7565b5b021790555061065c600584611458565b60078390806001815401808255809150506001900390600052602060002001600090919091909150553073ffffffffffffffffffffffffffffffffffffffff163373ffffffffffffffffffffffffffffffffffffffff167f03bf3bd6f276c409c4c8022a0ff3dd09f857cf66dca531a946dbefaae32cc4ed4260006040516106e5929190611d76565b60405180910390a350506106f7611518565b50565b610702611521565b47811115610745576040517f08c379a000000000000000000000000000000000000000000000000000000000815260040161073c90611dfe565b60405180910390fd5b3373ffffffffffffffffffffffffffffffffffffffff166108fc829081150290604051600060405180830381858888f1935050505015801561078b573d6000803e3d6000fd5b5050565b610797611521565b6107a160006115a8565b565b60008060009054906101000a900473ffffffffffffffffffffffffffffffffffffffff16905090565b6060600060058054905067ffffffffffffffff8111156107ef576107ee611aea565b5b60405190808252806020026020018201604052801561082857816020015b610815611674565b81526020019060019003908161080d5790505b50905060005b600580549050811015610983576000600460006005848154811061085557610854611b19565b5b9060005260206000200154815260200190815260200160002090506040518060c00160405280826000015481526020018260010160009054906101000a900473ffffffffffffffffffffffffffffffffffffffff1673ffffffffffffffffffffffffffffffffffffffff1681526020018260020160009054906101000a900473ffffffffffffffffffffffffffffffffffffffff1673ffffffffffffffffffffffffffffffffffffffff168152602001826003015481526020018260040160009054906101000a900473ffffffffffffffffffffffffffffffffffffffff1673ffffffffffffffffffffffffffffffffffffffff168152602001826005015481525083838151811061096a57610969611b19565b5b602002602001018190525050808060010191505061082e565b508091505090565b6000600254905090565b60025434146109d9576040517f08c379a00000000000000000000000000000000000000000000000000000000081526004016109d090611e6a565b60405180910390fd5b60008311610a1c576040517f08c379a0000000000000000000000000000000000000000000000000000000008152600401610a1390611ed6565b60405180910390fd5b60008111610a5f576040517f08c379a0000000000000000000000000000000000000000000000000000000008152600401610a5690611f42565b60405180910390fd5b6000849050838173ffffffffffffffffffffffffffffffffffffffff1663dd62ed3e33306040518363ffffffff1660e01b8152600401610aa0929190611f62565b602060405180830381865afa158015610abd573d6000803e3d6000fd5b505050506040513d601f19601f82011682018060405250810190610ae19190611fa0565b1015610b22576040517f08c379a0000000000000000000000000000000000000000000000000000000008152600401610b199061203f565b60405180910390fd5b6000600354905060036000815480929190610b3c9061208e565b919050555060006040518060e001604052808381526020013373ffffffffffffffffffffffffffffffffffffffff1681526020018873ffffffffffffffffffffffffffffffffffffffff1681526020018781526020018673ffffffffffffffffffffffffffffffffffffffff16815260200185815260200160006002811115610bc857610bc76119d7565b5b81525090508273ffffffffffffffffffffffffffffffffffffffff166323b872dd3330896040518463ffffffff1660e01b8152600401610c0a939291906120d6565b6020604051808303816000875af1158015610c29573d6000803e3d6000fd5b505050506040513d601f19601f82011682018060405250810190610c4d9190611cb8565b5080600460008481526020019081526020016000206000820151816000015560208201518160010160006101000a81548173ffffffffffffffffffffffffffffffffffffffff021916908373ffffffffffffffffffffffffffffffffffffffff16021790555060408201518160020160006101000a81548173ffffffffffffffffffffffffffffffffffffffff021916908373ffffffffffffffffffffffffffffffffffffffff1602179055506060820151816003015560808201518160040160006101000a81548173ffffffffffffffffffffffffffffffffffffffff021916908373ffffffffffffffffffffffffffffffffffffffff16021790555060a0820151816005015560c08201518160060160006101000a81548160ff02191690836002811115610d8057610d7f6119d7565b5b021790555090505060058290806001815401808255809150506001900390600052602060002001600090919091909150553073ffffffffffffffffffffffffffffffffffffffff163373ffffffffffffffffffffffffffffffffffffffff167f03bf3bd6f276c409c4c8022a0ff3dd09f857cf66dca531a946dbefaae32cc4ed4234604051610e10929190612159565b60405180910390a350505050505050565b60046020528060005260406000206000915090508060000154908060010160009054906101000a900473ffffffffffffffffffffffffffffffffffffffff16908060020160009054906101000a900473ffffffffffffffffffffffffffffffffffffffff16908060030154908060040160009054906101000a900473ffffffffffffffffffffffffffffffffffffffff16908060050154908060060160009054906101000a900460ff16905087565b610ed8611521565b600073ffffffffffffffffffffffffffffffffffffffff168173ffffffffffffffffffffffffffffffffffffffff1603610f4a5760006040517f1e4fbdf7000000000000000000000000000000000000000000000000000000008152600401610f4191906118ff565b60405180910390fd5b610f53816115a8565b50565b610f5e611412565b6002543414610fa2576040517f08c379a0000000000000000000000000000000000000000000000000000000008152600401610f9990611e6a565b60405180910390fd5b60006002811115610fb657610fb56119d7565b5b6004600083815260200190815260200160002060060160009054906101000a900460ff166002811115610fec57610feb6119d7565b5b1461102c576040517f08c379a000000000000000000000000000000000000000000000000000000000815260040161102390611c37565b60405180910390fd5b600060046000838152602001908152602001600020905060008160020160009054906101000a900473ffffffffffffffffffffffffffffffffffffffff16905060008260040160009054906101000a900473ffffffffffffffffffffffffffffffffffffffff16905082600501548173ffffffffffffffffffffffffffffffffffffffff1663dd62ed3e33306040518363ffffffff1660e01b81526004016110d5929190611f62565b602060405180830381865afa1580156110f2573d6000803e3d6000fd5b505050506040513d601f19601f820116820180604052508101906111169190611fa0565b1015611157576040517f08c379a000000000000000000000000000000000000000000000000000000000815260040161114e9061203f565b60405180910390fd5b8073ffffffffffffffffffffffffffffffffffffffff166323b872dd333086600501546040518463ffffffff1660e01b8152600401611198939291906120d6565b6020604051808303816000875af11580156111b7573d6000803e3d6000fd5b505050506040513d601f19601f820116820180604052508101906111db9190611cb8565b508173ffffffffffffffffffffffffffffffffffffffff1663a9059cbb3385600301546040518363ffffffff1660e01b815260040161121b929190611c57565b6020604051808303816000875af115801561123a573d6000803e3d6000fd5b505050506040513d601f19601f8201168201806040525081019061125e9190611cb8565b508073ffffffffffffffffffffffffffffffffffffffff1663a9059cbb8460010160009054906101000a900473ffffffffffffffffffffffffffffffffffffffff1685600501546040518363ffffffff1660e01b81526004016112c2929190611c57565b6020604051808303816000875af11580156112e1573d6000803e3d6000fd5b505050506040513d601f19601f820116820180604052508101906113059190611cb8565b5060026004600086815260200190815260200160002060060160006101000a81548160ff021916908360028111156113405761133f6119d7565b5b0217905550611350600585611458565b60068490806001815401808255809150506001900390600052602060002001600090919091909150558260010160009054906101000a900473ffffffffffffffffffffffffffffffffffffffff1673ffffffffffffffffffffffffffffffffffffffff163373ffffffffffffffffffffffffffffffffffffffff167f03bf3bd6f276c409c4c8022a0ff3dd09f857cf66dca531a946dbefaae32cc4ed42346040516113fc9291906121e1565b60405180910390a350505061140f611518565b50565b60026001540361144e576040517f3ee5aeb500000000000000000000000000000000000000000000000000000000815260040160405180910390fd5b6002600181905550565b60005b8280549050811015611513578183828154811061147b5761147a611b19565b5b90600052602060002001540361150657826001848054905061149d919061221d565b815481106114ae576114ad611b19565b5b90600052602060002001548382815481106114cc576114cb611b19565b5b9060005260206000200181905550828054806114eb576114ea612251565b5b60019003818190600052602060002001600090559055611513565b808060010191505061145b565b505050565b60018081905550565b61152961166c565b73ffffffffffffffffffffffffffffffffffffffff166115476107a3565b73ffffffffffffffffffffffffffffffffffffffff16146115a65761156a61166c565b6040517f118cdaa700000000000000000000000000000000000000000000000000000000815260040161159d91906118ff565b60405180910390fd5b565b60008060009054906101000a900473ffffffffffffffffffffffffffffffffffffffff169050816000806101000a81548173ffffffffffffffffffffffffffffffffffffffff021916908373ffffffffffffffffffffffffffffffffffffffff1602179055508173ffffffffffffffffffffffffffffffffffffffff168173ffffffffffffffffffffffffffffffffffffffff167f8be0079c531659141344cd1fd0a4f28419497f9722a3daafe3b4186f6b6457e060405160405180910390a35050565b600033905090565b6040518060c0016040528060008152602001600073ffffffffffffffffffffffffffffffffffffffff168152602001600073ffffffffffffffffffffffffffffffffffffffff16815260200160008152602001600073ffffffffffffffffffffffffffffffffffffffff168152602001600081525090565b600081519050919050565b600082825260208201905092915050565b6000819050602082019050919050565b6000819050919050565b61172b81611718565b82525050565b600073ffffffffffffffffffffffffffffffffffffffff82169050919050565b600061175c82611731565b9050919050565b61176c81611751565b82525050565b60c0820160008201516117886000850182611722565b50602082015161179b6020850182611763565b5060408201516117ae6040850182611763565b5060608201516117c16060850182611722565b5060808201516117d46080850182611763565b5060a08201516117e760a0850182611722565b50505050565b60006117f98383611772565b60c08301905092915050565b6000602082019050919050565b600061181d826116ec565b61182781856116f7565b935061183283611708565b8060005b8381101561186357815161184a88826117ed565b975061185583611805565b925050600181019050611836565b5085935050505092915050565b6000602082019050818103600083015261188a8184611812565b905092915050565b600080fd5b6118a081611718565b81146118ab57600080fd5b50565b6000813590506118bd81611897565b92915050565b6000602082840312156118d9576118d8611892565b5b60006118e7848285016118ae565b91505092915050565b6118f981611751565b82525050565b600060208201905061191460008301846118f0565b92915050565b61192381611718565b82525050565b600060208201905061193e600083018461191a565b92915050565b61194d81611751565b811461195857600080fd5b50565b60008135905061196a81611944565b92915050565b6000806000806080858703121561198a57611989611892565b5b60006119988782880161195b565b94505060206119a9878288016118ae565b93505060406119ba8782880161195b565b92505060606119cb878288016118ae565b91505092959194509250565b7f4e487b7100000000000000000000000000000000000000000000000000000000600052602160045260246000fd5b60038110611a1757611a166119d7565b5b50565b6000819050611a2882611a06565b919050565b6000611a3882611a1a565b9050919050565b611a4881611a2d565b82525050565b600060e082019050611a63600083018a61191a565b611a7060208301896118f0565b611a7d60408301886118f0565b611a8a606083018761191a565b611a9760808301866118f0565b611aa460a083018561191a565b611ab160c0830184611a3f565b98975050505050505050565b600060208284031215611ad357611ad2611892565b5b6000611ae18482850161195b565b91505092915050565b7f4e487b7100000000000000000000000000000000000000000000000000000000600052604160045260246000fd5b7f4e487b7100000000000000000000000000000000000000000000000000000000600052603260045260246000fd5b600082825260208201905092915050565b7f596f7520617265206e6f74207468652073656c6c6572206f662074686973207360008201527f7761700000000000000000000000000000000000000000000000000000000000602082015250565b6000611bb5602383611b48565b9150611bc082611b59565b604082019050919050565b60006020820190508181036000830152611be481611ba8565b9050919050565b7f5377617020737461747573206973206e6f742050454e44494e47000000000000600082015250565b6000611c21601a83611b48565b9150611c2c82611beb565b602082019050919050565b60006020820190508181036000830152611c5081611c14565b9050919050565b6000604082019050611c6c60008301856118f0565b611c79602083018461191a565b9392505050565b60008115159050919050565b611c9581611c80565b8114611ca057600080fd5b50565b600081519050611cb281611c8c565b92915050565b600060208284031215611cce57611ccd611892565b5b6000611cdc84828501611ca3565b91505092915050565b7f43616e63656c2053776170000000000000000000000000000000000000000000600082015250565b6000611d1b600b83611b48565b9150611d2682611ce5565b602082019050919050565b6000819050919050565b6000819050919050565b6000611d60611d5b611d5684611d31565b611d3b565b611718565b9050919050565b611d7081611d45565b82525050565b60006060820190508181036000830152611d8f81611d0e565b9050611d9e602083018561191a565b611dab6040830184611d67565b9392505050565b7f4e6f7420656e6f7567682066756e647320696e20636f6e747261637400000000600082015250565b6000611de8601c83611b48565b9150611df382611db2565b602082019050919050565b60006020820190508181036000830152611e1781611ddb565b9050919050565b7f5468652073656e742076616c7565206d7573742062652065786163746c790000600082015250565b6000611e54601e83611b48565b9150611e5f82611e1e565b602082019050919050565b60006020820190508181036000830152611e8381611e47565b9050919050565b7f416d6f756e7431206d7573742062652067726561746572207468616e20300000600082015250565b6000611ec0601e83611b48565b9150611ecb82611e8a565b602082019050919050565b60006020820190508181036000830152611eef81611eb3565b9050919050565b7f416d6f756e7432206d7573742062652067726561746572207468616e20300000600082015250565b6000611f2c601e83611b48565b9150611f3782611ef6565b602082019050919050565b60006020820190508181036000830152611f5b81611f1f565b9050919050565b6000604082019050611f7760008301856118f0565b611f8460208301846118f0565b9392505050565b600081519050611f9a81611897565b92915050565b600060208284031215611fb657611fb5611892565b5b6000611fc484828501611f8b565b91505092915050565b7f436f6e7472616374206e6f7420617070726f76656420746f207370656e64207560008201527f736572277320746f6b656e730000000000000000000000000000000000000000602082015250565b6000612029602c83611b48565b915061203482611fcd565b604082019050919050565b600060208201905081810360008301526120588161201c565b9050919050565b7f4e487b7100000000000000000000000000000000000000000000000000000000600052601160045260246000fd5b600061209982611718565b91507fffffffffffffffffffffffffffffffffffffffffffffffffffffffffffffffff82036120cb576120ca61205f565b5b600182019050919050565b60006060820190506120eb60008301866118f0565b6120f860208301856118f0565b612105604083018461191a565b949350505050565b7f4372656174652053776170000000000000000000000000000000000000000000600082015250565b6000612143600b83611b48565b915061214e8261210d565b602082019050919050565b6000606082019050818103600083015261217281612136565b9050612181602083018561191a565b61218e604083018461191a565b9392505050565b7f5377617020546f6b656e73000000000000000000000000000000000000000000600082015250565b60006121cb600b83611b48565b91506121d682612195565b602082019050919050565b600060608201905081810360008301526121fa816121be565b9050612209602083018561191a565b612216604083018461191a565b9392505050565b600061222882611718565b915061223383611718565b925082820390508181111561224b5761224a61205f565b5b92915050565b7f4e487b7100000000000000000000000000000000000000000000000000000000600052603160045260246000fdfea264697066735822122020d19debcb03005c24d81bba94aaedeceb34ddfa6074711dc2b2f1e2a49bafff64736f6c634300081c0033",
  "linkReferences": {},
  "deployedLinkReferences": {}
}